30CBDT       FCBX       0001218121000006                                                                                                                                                                                                                                                                                                                                                                                                                                                                            
7028032021AC00858UTIB0SFAZ01040235002100017                    0001AAHAT2002B          UTTAM VIHAR COOP LC SOCIETY LTD                                                                     CA                                                                                                                                                                                                                                                                                                                       
7028032021AC00878UTIB0SFAZ01041135002000006                    0001AACAT5192P          SHAHEED BHAGAT SINGH CO.OP LC SOC.                                                                  CA                                                                                                                                                                                                                                                                                                                       
7028032021AC00881UTIB0SFAZ01041235002000000                    02                                                                                                                                                                                                                                                                                                                                                                                                                                                   
7028032021AC00882UTIB0SFAZ01041235002000015                    0001AAABT1734E          THE SHAJRANA COOP SOC                                                                               CA                                                                                                                                                                                                                                                                                                                       
7028032021AC00883UTIB0SFAZ01041235002100012                    0001ACKPA5459R          AGARWAL COOP L.C SOCIETY                                                                            CA                                                                                                                                                                                                                                                                                                                       
7028032021AC05465UTIB0SFAZ01919030012951251                    02                                                                                                                                                                                                                                                                                                                                                                                                                                                   
